{
  "abi": [
    {
      "inputs": [
        {
          "internalType": "address",
          "name": "_GTMTokenAddress",
          "type": "address"
        }
      ],
      "stateMutability": "payable",
      "type": "constructor"
    },
    {
      "anonymous": false,
      "inputs": [
        {
          "indexed": false,
          "internalType": "address",
          "name": "",
          "type": "address"
        },
        {
          "indexed": false,
          "internalType": "uint256",
          "name": "",
          "type": "uint256"
        },
        {
          "indexed": false,
          "internalType": "enum Game.GAME_STATUS",
          "name": "",
          "type": "uint8"
        }
      ],
      "name": "Constructor_event",
      "type": "event"
    },
    {
      "anonymous": false,
      "inputs": [
        {
          "indexed": false,
          "internalType": "address",
          "name": "_from",
          "type": "address"
        },
        {
          "indexed": false,
          "internalType": "uint256",
          "name": "_amount",
          "type": "uint256"
        },
        {
          "indexed": false,
          "internalType": "enum Game.GAME_STATUS",
          "name": "",
          "type": "uint8"
        }
      ],
      "name": "Curr_payout",
      "type": "event"
    },
    {
      "anonymous": false,
      "inputs": [
        {
          "indexed": false,
          "internalType": "address",
          "name": "_from",
          "type": "address"
        },
        {
          "indexed": false,
          "internalType": "uint256",
          "name": "_amount",
          "type": "uint256"
        },
        {
          "indexed": false,
          "internalType": "enum Game.GAME_STATUS",
          "name": "",
          "type": "uint8"
        },
        {
          "indexed": false,
          "internalType": "uint256",
          "name": "_reward",
          "type": "uint256"
        }
      ],
      "name": "Ended",
      "type": "event"
    },
    {
      "anonymous": false,
      "inputs": [
        {
          "indexed": false,
          "internalType": "address",
          "name": "_from",
          "type": "address"
        },
        {
          "indexed": false,
          "internalType": "uint256",
          "name": "_amount",
          "type": "uint256"
        },
        {
          "indexed": false,
          "internalType": "enum Game.GAME_STATUS",
          "name": "",
          "type": "uint8"
        },
        {
          "indexed": false,
          "internalType": "uint256",
          "name": "_score",
          "type": "uint256"
        },
        {
          "indexed": false,
          "internalType": "address",
          "name": "_gmttoken",
          "type": "address"
        }
      ],
      "name": "New_payout",
      "type": "event"
    },
    {
      "anonymous": false,
      "inputs": [
        {
          "indexed": false,
          "internalType": "address",
          "name": "",
          "type": "address"
        },
        {
          "indexed": false,
          "internalType": "string",
          "name": "",
          "type": "string"
        }
      ],
      "name": "Payout",
      "type": "event"
    },
    {
      "anonymous": false,
      "inputs": [
        {
          "indexed": false,
          "internalType": "address",
          "name": "_user",
          "type": "address"
        },
        {
          "indexed": false,
          "internalType": "string",
          "name": "",
          "type": "string"
        }
      ],
      "name": "Play",
      "type": "event"
    },
    {
      "anonymous": false,
      "inputs": [
        {
          "indexed": false,
          "internalType": "uint256",
          "name": "_rate",
          "type": "uint256"
        },
        {
          "indexed": false,
          "internalType": "uint256",
          "name": "_time",
          "type": "uint256"
        },
        {
          "indexed": false,
          "internalType": "uint256",
          "name": "_input",
          "type": "uint256"
        },
        {
          "indexed": false,
          "internalType": "uint256",
          "name": "_staking_amount",
          "type": "uint256"
        }
      ],
      "name": "Rate",
      "type": "event"
    },
    {
      "anonymous": false,
      "inputs": [
        {
          "indexed": false,
          "internalType": "address",
          "name": "_staker",
          "type": "address"
        },
        {
          "indexed": false,
          "internalType": "uint256",
          "name": "_rate",
          "type": "uint256"
        },
        {
          "indexed": false,
          "internalType": "bool",
          "name": "_stake_status",
          "type": "bool"
        },
        {
          "indexed": false,
          "internalType": "uint256",
          "name": "_amount",
          "type": "uint256"
        },
        {
          "indexed": false,
          "internalType": "string",
          "name": "_message",
          "type": "string"
        },
        {
          "indexed": false,
          "internalType": "uint256",
          "name": "_time_stamp",
          "type": "uint256"
        }
      ],
      "name": "Stake_status",
      "type": "event"
    },
    {
      "anonymous": false,
      "inputs": [
        {
          "indexed": false,
          "internalType": "address",
          "name": "_staker",
          "type": "address"
        },
        {
          "indexed": false,
          "internalType": "bool",
          "name": "_on",
          "type": "bool"
        },
        {
          "indexed": false,
          "internalType": "string",
          "name": "_message",
          "type": "string"
        },
        {
          "indexed": false,
          "internalType": "uint256",
          "name": "_value",
          "type": "uint256"
        }
      ],
      "name": "Staking",
      "type": "event"
    },
    {
      "anonymous": false,
      "inputs": [
        {
          "indexed": false,
          "internalType": "address",
          "name": "_staker",
          "type": "address"
        },
        {
          "indexed": false,
          "internalType": "uint256",
          "name": "_amount",
          "type": "uint256"
        },
        {
          "indexed": false,
          "internalType": "bool",
          "name": "_on",
          "type": "bool"
        },
        {
          "indexed": false,
          "internalType": "string",
          "name": "_message",
          "type": "string"
        }
      ],
      "name": "Un_Staking",
      "type": "event"
    },
    {
      "inputs": [],
      "name": "GTMToken",
      "outputs": [
        {
          "internalType": "contract IERC20",
          "name": "",
          "type": "address"
        }
      ],
      "stateMutability": "view",
      "type": "function"
    },
    {
      "inputs": [
        {
          "internalType": "address",
          "name": "",
          "type": "address"
        }
      ],
      "name": "Staking_amount",
      "outputs": [
        {
          "internalType": "uint256",
          "name": "",
          "type": "uint256"
        }
      ],
      "stateMutability": "view",
      "type": "function"
    },
    {
      "inputs": [],
      "name": "_timestamp",
      "outputs": [
        {
          "internalType": "uint256",
          "name": "",
          "type": "uint256"
        }
      ],
      "stateMutability": "view",
      "type": "function"
    },
    {
      "inputs": [
        {
          "internalType": "address",
          "name": "_token_address",
          "type": "address"
        }
      ],
      "name": "addallowed_tokens",
      "outputs": [],
      "stateMutability": "nonpayable",
      "type": "function"
    },
    {
      "inputs": [
        {
          "internalType": "uint256",
          "name": "",
          "type": "uint256"
        }
      ],
      "name": "allowed_tokens",
      "outputs": [
        {
          "internalType": "address",
          "name": "",
          "type": "address"
        }
      ],
      "stateMutability": "view",
      "type": "function"
    },
    {
      "inputs": [],
      "name": "amount",
      "outputs": [
        {
          "internalType": "uint256",
          "name": "",
          "type": "uint256"
        }
      ],
      "stateMutability": "view",
      "type": "function"
    },
    {
      "inputs": [],
      "name": "contract_address",
      "outputs": [
        {
          "internalType": "address",
          "name": "",
          "type": "address"
        }
      ],
      "stateMutability": "view",
      "type": "function"
    },
    {
      "inputs": [],
      "name": "current_point",
      "outputs": [
        {
          "internalType": "uint256",
          "name": "",
          "type": "uint256"
        }
      ],
      "stateMutability": "view",
      "type": "function"
    },
    {
      "inputs": [
        {
          "internalType": "address",
          "name": "_token_address",
          "type": "address"
        }
      ],
      "name": "end_game",
      "outputs": [],
      "stateMutability": "nonpayable",
      "type": "function"
    },
    {
      "inputs": [
        {
          "internalType": "uint256",
          "name": "new_score",
          "type": "uint256"
        }
      ],
      "name": "get_pay_amount",
      "outputs": [
        {
          "internalType": "uint256",
          "name": "",
          "type": "uint256"
        }
      ],
      "stateMutability": "nonpayable",
      "type": "function"
    },
    {
      "inputs": [],
      "name": "get_stake_status",
      "outputs": [
        {
          "internalType": "bool",
          "name": "",
          "type": "bool"
        },
        {
          "internalType": "uint256",
          "name": "",
          "type": "uint256"
        },
        {
          "internalType": "uint256",
          "name": "",
          "type": "uint256"
        },
        {
          "internalType": "uint256",
          "name": "",
          "type": "uint256"
        }
      ],
      "stateMutability": "payable",
      "type": "function"
    },
    {
      "inputs": [],
      "name": "get_staker_time",
      "outputs": [
        {
          "internalType": "uint256",
          "name": "",
          "type": "uint256"
        }
      ],
      "stateMutability": "payable",
      "type": "function"
    },
    {
      "inputs": [
        {
          "internalType": "address",
          "name": "",
          "type": "address"
        }
      ],
      "name": "isStaking",
      "outputs": [
        {
          "internalType": "bool",
          "name": "",
          "type": "bool"
        }
      ],
      "stateMutability": "view",
      "type": "function"
    },
    {
      "inputs": [
        {
          "internalType": "address",
          "name": "",
          "type": "address"
        }
      ],
      "name": "is_token_alloed",
      "outputs": [
        {
          "internalType": "bool",
          "name": "",
          "type": "bool"
        }
      ],
      "stateMutability": "view",
      "type": "function"
    },
    {
      "inputs": [
        {
          "internalType": "address",
          "name": "",
          "type": "address"
        }
      ],
      "name": "pay_out_amount",
      "outputs": [
        {
          "internalType": "uint256",
          "name": "",
          "type": "uint256"
        }
      ],
      "stateMutability": "view",
      "type": "function"
    },
    {
      "inputs": [
        {
          "internalType": "uint256",
          "name": "_score",
          "type": "uint256"
        },
        {
          "internalType": "address",
          "name": "_gmttoken",
          "type": "address"
        },
        {
          "internalType": "address",
          "name": "_token_address",
          "type": "address"
        }
      ],
      "name": "payout_amount",
      "outputs": [],
      "stateMutability": "nonpayable",
      "type": "function"
    },
    {
      "inputs": [],
      "name": "play",
      "outputs": [],
      "stateMutability": "payable",
      "type": "function"
    },
    {
      "inputs": [],
      "name": "player",
      "outputs": [
        {
          "internalType": "address",
          "name": "",
          "type": "address"
        }
      ],
      "stateMutability": "view",
      "type": "function"
    },
    {
      "inputs": [],
      "name": "playing_fee",
      "outputs": [
        {
          "internalType": "uint256",
          "name": "",
          "type": "uint256"
        }
      ],
      "stateMutability": "view",
      "type": "function"
    },
    {
      "inputs": [],
      "name": "rate",
      "outputs": [
        {
          "internalType": "uint256",
          "name": "",
          "type": "uint256"
        }
      ],
      "stateMutability": "view",
      "type": "function"
    },
    {
      "inputs": [],
      "name": "reward_rate",
      "outputs": [
        {
          "internalType": "uint256",
          "name": "",
          "type": "uint256"
        }
      ],
      "stateMutability": "view",
      "type": "function"
    },
    {
      "inputs": [],
      "name": "score_divider",
      "outputs": [
        {
          "internalType": "uint256",
          "name": "",
          "type": "uint256"
        }
      ],
      "stateMutability": "view",
      "type": "function"
    },
    {
      "inputs": [
        {
          "internalType": "address",
          "name": "",
          "type": "address"
        }
      ],
      "name": "score_mapping",
      "outputs": [
        {
          "internalType": "uint256",
          "name": "",
          "type": "uint256"
        }
      ],
      "stateMutability": "view",
      "type": "function"
    },
    {
      "inputs": [
        {
          "internalType": "address",
          "name": "_token_address",
          "type": "address"
        },
        {
          "internalType": "uint256",
          "name": "_amount",
          "type": "uint256"
        }
      ],
      "name": "stake",
      "outputs": [],
      "stateMutability": "payable",
      "type": "function"
    },
    {
      "inputs": [],
      "name": "staking_rewards",
      "outputs": [
        {
          "internalType": "uint256",
          "name": "",
          "type": "uint256"
        }
      ],
      "stateMutability": "payable",
      "type": "function"
    },
    {
      "inputs": [
        {
          "internalType": "address",
          "name": "",
          "type": "address"
        }
      ],
      "name": "staking_time",
      "outputs": [
        {
          "internalType": "uint256",
          "name": "",
          "type": "uint256"
        }
      ],
      "stateMutability": "view",
      "type": "function"
    },
    {
      "inputs": [
        {
          "internalType": "address",
          "name": "_token_address",
          "type": "address"
        }
      ],
      "name": "unstake",
      "outputs": [],
      "stateMutability": "payable",
      "type": "function"
    }
  ],
  "bytecode": "6080604052604051611130380380611130833981016040819052610022916100bf565b600b805460ff1916600190811790915560008054336001600160a01b0319918216811790925567016345785d8a0000600a556064600c8190556011805483166001600160a01b0387161790556007805430931692909217909155600d8390556040517f354787b8752a42d2f35c2b778dc6558f4d375c83a79a7e6193fb55c8a8c4bbb8936100b19392916100ef565b60405180910390a150610132565b6000602082840312156100d157600080fd5b81516001600160a01b03811681146100e857600080fd5b9392505050565b6001600160a01b038416815260208101839052606081016004831061012457634e487b7160e01b600052602160045260246000fd5b826040830152949350505050565b610fef806101416000396000f3fe60806040526004361061019c5760003560e01c806393e84cd9116100ec578063c15477a71161008a578063d6ffe95d11610064578063d6ffe95d1461048e578063e1174b0e146104ae578063f2888dbb146104ce578063f4893f3f146104e157600080fd5b8063c15477a714610421578063c31d0f8e14610441578063d22667661461046157600080fd5b8063a03e95c6116100c6578063a03e95c6146103b3578063aa8c217c146103e3578063adc9772e146103f9578063b37d9b551461040c57600080fd5b806393e84cd914610373578063966b35141461037d5780639e0ffbce1461039d57600080fd5b806348db5f8911610159578063669475b711610133578063669475b7146102c35780636f49712b146102d95780637b93e58914610319578063883fdf351461034657600080fd5b806348db5f891461026d5780634aa682d1146102a5578063598f24d3146102ad57600080fd5b80630fdad222146101a1578063202bf1cf146101d05780632c4e722e146101f457806334e0dbb71461020a57806339bb3acb14610220578063470cecf51461024d575b600080fd5b6101a961054e565b60408051941515855260208501939093529183015260608201526080015b60405180910390f35b3480156101dc57600080fd5b506101e6600c5481565b6040519081526020016101c7565b34801561020057600080fd5b506101e6600d5481565b34801561021657600080fd5b506101e660095481565b34801561022c57600080fd5b506101e661023b366004610d9a565b60016020526000908152604090205481565b34801561025957600080fd5b506101e6610268366004610dbc565b610609565b34801561027957600080fd5b5060005461028d906001600160a01b031681565b6040516001600160a01b0390911681526020016101c7565b6101e6610664565b3480156102b957600080fd5b506101e6600a5481565b3480156102cf57600080fd5b506101e6600e5481565b3480156102e557600080fd5b506103096102f4366004610d9a565b60026020526000908152604090205460ff1681565b60405190151581526020016101c7565b34801561032557600080fd5b506101e6610334366004610d9a565b60066020526000908152604090205481565b34801561035257600080fd5b506101e6610361366004610d9a565b60036020526000908152604090205481565b61037b610766565b005b34801561038957600080fd5b5060075461028d906001600160a01b031681565b3480156103a957600080fd5b506101e6600f5481565b3480156103bf57600080fd5b506103096103ce366004610d9a565b60046020526000908152604090205460ff1681565b3480156103ef57600080fd5b506101e660085481565b61037b610407366004610dd5565b610813565b336000908152600360205260409020546101e6565b34801561042d57600080fd5b5061037b61043c366004610d9a565b6109f1565b34801561044d57600080fd5b5060115461028d906001600160a01b031681565b34801561046d57600080fd5b506101e661047c366004610d9a565b60056020526000908152604090205481565b34801561049a57600080fd5b5061037b6104a9366004610dff565b610b34565b3480156104ba57600080fd5b5061028d6104c9366004610dbc565b610be6565b61037b6104dc366004610d9a565b610c10565b3480156104ed57600080fd5b5061037b6104fc366004610d9a565b601080546001810182556000919091527f1b6847dc741a1b0cd08d278845f9d819d87b734759afb55fe2de5cb82a9ae6720180546001600160a01b0319166001600160a01b0392909216919091179055565b3360008181526002602090815260408083205460018352818420546003845282852054600f5484519788529487019490945260ff909116801515928601929092526060850181905260c060808601819052600c908601526b7374616b652073746174757360a01b60e086015260a085018390529293849384938493927f62cb4d1ad702c883d8aed2d3996e7676e2ac8cf08eb51f2fd1b9d5027bb05b3b906101000160405180910390a1600f54929792965090945092509050565b600080600c548361061a9190610e51565b600b546040519192507f7571e5819b8998a50e53af2897e3de64d344e9481fa62f909fc66ed9cc8ae1b691610656913391859160ff1690610eab565b60405180910390a192915050565b3360009081526002602052604081205460ff1615156001146106bc5760405162461bcd60e51b815260206004820152600c60248201526b4e6f74207374616b696e672160a01b60448201526064015b60405180910390fd5b33600090815260036020908152604080832054600190925282205490916106e38342610ed7565b90506000620186a0600d5484846106fa9190610eee565b6107049190610eee565b61070e9190610e51565b600f8190556040805184815260208101879052908101829052606081018590529091507f7b466a2eae47ec78458dbe599e7aecd10e67652cba3f6f66ec4deb2cac3854e59060800160405180910390a1949350505050565b34662386f26fc10000146107b35760405162461bcd60e51b8152602060048201526014602482015273796f75206d7573742070617920746f20706c617960601b60448201526064016106b3565b600b805460ff191681556040805133815260208101829052808201929092526a47616d65206973206f6e2160a81b6060830152517f7c3f1ac7ca02c54f9e5d12b85a1397b5cda010563f77dd653a2d76d612ffb9a19181900360800190a1565b3360009081526002602052604090205460ff16156108665760405162461bcd60e51b815260206004820152601060248201526f416c7265616479207374616b696e672160801b60448201526064016106b3565b33600090815260016020526040902054156108c35760405162461bcd60e51b815260206004820152601860248201527f5374616b696e6720616d6f756e74206973206e6f74203021000000000000000060448201526064016106b3565b6040516323b872dd60e01b8152336004820152306024820152604481018290526001600160a01b038316906323b872dd906064016020604051808303816000875af1158015610916573d6000803e3d6000fd5b505050506040513d601f19601f8201168201806040525081019061093a9190610f0d565b50336000908152600260209081526040808320805460ff1916600190811790915590915281208054839290610970908490610f2f565b90915550503360008181526003602090815260409182902042905581519283526001908301526080908201819052600c908201526b7374616b696e67206e6f772160a01b60a08201523460608201527fcc88a9b1933c562a754afcfa5366d93b1aa7dad853cd6893f95381ab8370a4fc9060c0015b60405180910390a15050565b600b805460ff1916600317905533600090815260066020908152604080832054600290925282205490919060ff1615610b1057610a2c610664565b6011549091506001600160a01b031663a9059cbb33610a4b8486610eee565b6040516001600160e01b031960e085901b1681526001600160a01b03909216600483015260248201526044016020604051808303816000875af1158015610a96573d6000803e3d6000fd5b505050506040513d601f19601f82011682018060405250810190610aba9190610f0d565b50600054600b546040517f42efd5d6f80b896601e2e950eaa34217ef7534a3bc4a057995031384fc69dbd392610b03926001600160a01b0390911691869160ff16908690610f47565b60405180910390a1505050565b6011546001600160a01b031663a9059cbb33610a4b85670de0b6b3a7640000610eee565b6000600b5460ff166003811115610b4d57610b4d610e73565b14610b5757600080fd5b6000600c5484610b679190610e51565b33600090815260066020526040812080549293508392909190610b8b908490610f2f565b9091555050600b546040517f1699339832af2c7d422100edba3c6497ae9ca1885b11c6bd219600b6b308cca791610bcf913391859160ff9091169089908990610f7a565b60405180910390a1610be0826109f1565b50505050565b60108181548110610bf657600080fd5b6000918252602090912001546001600160a01b0316905081565b3360009081526002602052604090205460ff16610c5e5760405162461bcd60e51b815260206004820152600c60248201526b4e6f74207374616b696e672160a01b60448201526064016106b3565b336000818152600160205260409081902054905163a9059cbb60e01b8152600481019290925260248201819052906001600160a01b0383169063a9059cbb906044016020604051808303816000875af1158015610cbf573d6000803e3d6000fd5b505050506040513d601f19601f82011682018060405250810190610ce39190610f0d565b50336000818152600260208181526040808420805460ff191681556003835281852085905560018352818520949094559181529154815193845291830184905260ff909116151590820152608060608201819052600e908201526d456e646564207374616b696e672160901b60a08201527ff361d709f1c61432a97b1bf1a87fdd6f4e44c173d8a620cb50a6fc3d6e5d7e5f9060c0016109e5565b80356001600160a01b0381168114610d9557600080fd5b919050565b600060208284031215610dac57600080fd5b610db582610d7e565b9392505050565b600060208284031215610dce57600080fd5b5035919050565b60008060408385031215610de857600080fd5b610df183610d7e565b946020939093013593505050565b600080600060608486031215610e1457600080fd5b83359250610e2460208501610d7e565b9150610e3260408501610d7e565b90509250925092565b634e487b7160e01b600052601160045260246000fd5b600082610e6e57634e487b7160e01b600052601260045260246000fd5b500490565b634e487b7160e01b600052602160045260246000fd5b60048110610ea757634e487b7160e01b600052602160045260246000fd5b9052565b6001600160a01b03841681526020810183905260608101610ecf6040830184610e89565b949350505050565b600082821015610ee957610ee9610e3b565b500390565b6000816000190483118215151615610f0857610f08610e3b565b500290565b600060208284031215610f1f57600080fd5b81518015158114610db557600080fd5b60008219821115610f4257610f42610e3b565b500190565b6001600160a01b03851681526020810184905260808101610f6b6040830185610e89565b82606083015295945050505050565b6001600160a01b0386811682526020820186905260a0820190610fa06040840187610e89565b846060840152808416608084015250969550505050505056fea2646970667358221220f3b703e02b315e2361617880ed854d07fc220a53c2d300993f91ef9332f8c97e64736f6c634300080c0033",
  "bytecodeSha1": "f2a5ba5ee62d71673dfe63e26386343987d069ca",
  "compiler": {
    "evm_version": "istanbul",
    "optimizer": {
      "enabled": true,
      "runs": 200
    },
    "version": "0.8.12+commit.f00d7308"
  },
  "contractName": "Game",
  "language": "Solidity",
  "natspec": {
    "kind": "dev",
    "methods": {},
    "version": 1
  },
  "opcodes": "PUSH1 0x80 PUSH1 0x40 MSTORE PUSH1 0x4 CALLDATASIZE LT PUSH2 0x19C JUMPI PUSH1 0x0 CALLDATALOAD PUSH1 0xE0 SHR DUP1 PUSH4 0x93E84CD9 GT PUSH2 0xEC JUMPI DUP1 PUSH4 0xC15477A7 GT PUSH2 0x8A JUMPI DUP1 PUSH4 0xD6FFE95D GT PUSH2 0x64 JUMPI DUP1 PUSH4 0xD6FFE95D EQ PUSH2 0x48E JUMPI DUP1 PUSH4 0xE1174B0E EQ PUSH2 0x4AE JUMPI DUP1 PUSH4 0xF2888DBB EQ PUSH2 0x4CE JUMPI DUP1 PUSH4 0xF4893F3F EQ PUSH2 0x4E1 JUMPI PUSH1 0x0 DUP1 REVERT JUMPDEST DUP1 PUSH4 0xC15477A7 EQ PUSH2 0x421 JUMPI DUP1 PUSH4 0xC31D0F8E EQ PUSH2 0x441 JUMPI DUP1 PUSH4 0xD2266766 EQ PUSH2 0x461 JUMPI PUSH1 0x0 DUP1 REVERT JUMPDEST DUP1 PUSH4 0xA03E95C6 GT PUSH2 0xC6 JUMPI DUP1 PUSH4 0xA03E95C6 EQ PUSH2 0x3B3 JUMPI DUP1 PUSH4 0xAA8C217C EQ PUSH2 0x3E3 JUMPI DUP1 PUSH4 0xADC9772E EQ PUSH2 0x3F9 JUMPI DUP1 PUSH4 0xB37D9B55 EQ PUSH2 0x40C JUMPI PUSH1 0x0 DUP1 REVERT JUMPDEST DUP1 PUSH4 0x93E84CD9 EQ PUSH2 0x373 JUMPI DUP1 PUSH4 0x966B3514 EQ PUSH2 0x37D JUMPI DUP1 PUSH4 0x9E0FFBCE EQ PUSH2 0x39D JUMPI PUSH1 0x0 DUP1 REVERT JUMPDEST DUP1 PUSH4 0x48DB5F89 GT PUSH2 0x159 JUMPI DUP1 PUSH4 0x669475B7 GT PUSH2 0x133 JUMPI DUP1 PUSH4 0x669475B7 EQ PUSH2 0x2C3 JUMPI DUP1 PUSH4 0x6F49712B EQ PUSH2 0x2D9 JUMPI DUP1 PUSH4 0x7B93E589 EQ PUSH2 0x319 JUMPI DUP1 PUSH4 0x883FDF35 EQ PUSH2 0x346 JUMPI PUSH1 0x0 DUP1 REVERT JUMPDEST DUP1 PUSH4 0x48DB5F89 EQ PUSH2 0x26D JUMPI DUP1 PUSH4 0x4AA682D1 EQ PUSH2 0x2A5 JUMPI DUP1 PUSH4 0x598F24D3 EQ PUSH2 0x2AD JUMPI PUSH1 0x0 DUP1 REVERT JUMPDEST DUP1 PUSH4 0xFDAD222 EQ PUSH2 0x1A1 JUMPI DUP1 PUSH4 0x202BF1CF EQ PUSH2 0x1D0 JUMPI DUP1 PUSH4 0x2C4E722E EQ PUSH2 0x1F4 JUMPI DUP1 PUSH4 0x34E0DBB7 EQ PUSH2 0x20A JUMPI DUP1 PUSH4 0x39BB3ACB EQ PUSH2 0x220 JUMPI DUP1 PUSH4 0x470CECF5 EQ PUSH2 0x24D JUMPI JUMPDEST PUSH1 0x0 DUP1 REVERT JUMPDEST PUSH2 0x1A9 PUSH2 0x54E JUMP JUMPDEST PUSH1 0x40 DUP1 MLOAD SWAP5 ISZERO ISZERO DUP6 MSTORE PUSH1 0x20 DUP6 ADD SWAP4 SWAP1 SWAP4 MSTORE SWAP2 DUP4 ADD MSTORE PUSH1 0x60 DUP3 ADD MSTORE PUSH1 0x80 ADD JUMPDEST PUSH1 0x40 MLOAD DUP1 SWAP2 SUB SWAP1 RETURN JUMPDEST CALLVALUE DUP1 ISZERO PUSH2 0x1DC JUMPI PUSH1 0x0 DUP1 REVERT JUMPDEST POP PUSH2 0x1E6 PUSH1 0xC SLOAD DUP2 JUMP JUMPDEST PUSH1 0x40 MLOAD SWAP1 DUP2 MSTORE PUSH1 0x20 ADD PUSH2 0x1C7 JUMP JUMPDEST CALLVALUE DUP1 ISZERO PUSH2 0x200 JUMPI PUSH1 0x0 DUP1 REVERT JUMPDEST POP PUSH2 0x1E6 PUSH1 0xD SLOAD DUP2 JUMP JUMPDEST CALLVALUE DUP1 ISZERO PUSH2 0x216 JUMPI PUSH1 0x0 DUP1 REVERT JUMPDEST POP PUSH2 0x1E6 PUSH1 0x9 SLOAD DUP2 JUMP JUMPDEST CALLVALUE DUP1 ISZERO PUSH2 0x22C JUMPI PUSH1 0x0 DUP1 REVERT JUMPDEST POP PUSH2 0x1E6 PUSH2 0x23B CALLDATASIZE PUSH1 0x4 PUSH2 0xD9A JUMP JUMPDEST PUSH1 0x1 PUSH1 0x20 MSTORE PUSH1 0x0 SWAP1 DUP2 MSTORE PUSH1 0x40 SWAP1 KECCAK256 SLOAD DUP2 JUMP JUMPDEST CALLVALUE DUP1 ISZERO PUSH2 0x259 JUMPI PUSH1 0x0 DUP1 REVERT JUMPDEST POP PUSH2 0x1E6 PUSH2 0x268 CALLDATASIZE PUSH1 0x4 PUSH2 0xDBC JUMP JUMPDEST PUSH2 0x609 JUMP JUMPDEST CALLVALUE DUP1 ISZERO PUSH2 0x279 JUMPI PUSH1 0x0 DUP1 REVERT JUMPDEST POP PUSH1 0x0 SLOAD PUSH2 0x28D SWAP1 PUSH1 0x1 PUSH1 0x1 PUSH1 0xA0 SHL SUB AND DUP2 JUMP JUMPDEST PUSH1 0x40 MLOAD PUSH1 0x1 PUSH1 0x1 PUSH1 0xA0 SHL SUB SWAP1 SWAP2 AND DUP2 MSTORE PUSH1 0x20 ADD PUSH2 0x1C7 JUMP JUMPDEST PUSH2 0x1E6 PUSH2 0x664 JUMP JUMPDEST CALLVALUE DUP1 ISZERO PUSH2 0x2B9 JUMPI PUSH1 0x0 DUP1 REVERT JUMPDEST POP PUSH2 0x1E6 PUSH1 0xA SLOAD DUP2 JUMP JUMPDEST CALLVALUE DUP1 ISZERO PUSH2 0x2CF JUMPI PUSH1 0x0 DUP1 REVERT JUMPDEST POP PUSH2 0x1E6 PUSH1 0xE SLOAD DUP2 JUMP JUMPDEST CALLVALUE DUP1 ISZERO PUSH2 0x2E5 JUMPI PUSH1 0x0 DUP1 REVERT JUMPDEST POP PUSH2 0x309 PUSH2 0x2F4 CALLDATASIZE PUSH1 0x4 PUSH2 0xD9A JUMP JUMPDEST PUSH1 0x2 PUSH1 0x20 MSTORE PUSH1 0x0 SWAP1 DUP2 MSTORE PUSH1 0x40 SWAP1 KECCAK256 SLOAD PUSH1 0xFF AND DUP2 JUMP JUMPDEST PUSH1 0x40 MLOAD SWAP1 ISZERO ISZERO DUP2 MSTORE PUSH1 0x20 ADD PUSH2 0x1C7 JUMP JUMPDEST CALLVALUE DUP1 ISZERO PUSH2 0x325 JUMPI PUSH1 0x0 DUP1 REVERT JUMPDEST POP PUSH2 0x1E6 PUSH2 0x334 CALLDATASIZE PUSH1 0x4 PUSH2 0xD9A JUMP JUMPDEST PUSH1 0x6 PUSH1 0x20 MSTORE PUSH1 0x0 SWAP1 DUP2 MSTORE PUSH1 0x40 SWAP1 KECCAK256 SLOAD DUP2 JUMP JUMPDEST CALLVALUE DUP1 ISZERO PUSH2 0x352 JUMPI PUSH1 0x0 DUP1 REVERT JUMPDEST POP PUSH2 0x1E6 PUSH2 0x361 CALLDATASIZE PUSH1 0x4 PUSH2 0xD9A JUMP JUMPDEST PUSH1 0x3 PUSH1 0x20 MSTORE PUSH1 0x0 SWAP1 DUP2 MSTORE PUSH1 0x40 SWAP1 KECCAK256 SLOAD DUP2 JUMP JUMPDEST PUSH2 0x37B PUSH2 0x766 JUMP JUMPDEST STOP JUMPDEST CALLVALUE DUP1 ISZERO PUSH2 0x389 JUMPI PUSH1 0x0 DUP1 REVERT JUMPDEST POP PUSH1 0x7 SLOAD PUSH2 0x28D SWAP1 PUSH1 0x1 PUSH1 0x1 PUSH1 0xA0 SHL SUB AND DUP2 JUMP JUMPDEST CALLVALUE DUP1 ISZERO PUSH2 0x3A9 JUMPI PUSH1 0x0 DUP1 REVERT JUMPDEST POP PUSH2 0x1E6 PUSH1 0xF SLOAD DUP2 JUMP JUMPDEST CALLVALUE DUP1 ISZERO PUSH2 0x3BF JUMPI PUSH1 0x0 DUP1 REVERT JUMPDEST POP PUSH2 0x309 PUSH2 0x3CE CALLDATASIZE PUSH1 0x4 PUSH2 0xD9A JUMP JUMPDEST PUSH1 0x4 PUSH1 0x20 MSTORE PUSH1 0x0 SWAP1 DUP2 MSTORE PUSH1 0x40 SWAP1 KECCAK256 SLOAD PUSH1 0xFF AND DUP2 JUMP JUMPDEST CALLVALUE DUP1 ISZERO PUSH2 0x3EF JUMPI PUSH1 0x0 DUP1 REVERT JUMPDEST POP PUSH2 0x1E6 PUSH1 0x8 SLOAD DUP2 JUMP JUMPDEST PUSH2 0x37B PUSH2 0x407 CALLDATASIZE PUSH1 0x4 PUSH2 0xDD5 JUMP JUMPDEST PUSH2 0x813 JUMP JUMPDEST CALLER PUSH1 0x0 SWAP1 DUP2 MSTORE PUSH1 0x3 PUSH1 0x20 MSTORE PUSH1 0x40 SWAP1 KECCAK256 SLOAD PUSH2 0x1E6 JUMP JUMPDEST CALLVALUE DUP1 ISZERO PUSH2 0x42D JUMPI PUSH1 0x0 DUP1 REVERT JUMPDEST POP PUSH2 0x37B PUSH2 0x43C CALLDATASIZE PUSH1 0x4 PUSH2 0xD9A JUMP JUMPDEST PUSH2 0x9F1 JUMP JUMPDEST CALLVALUE DUP1 ISZERO PUSH2 0x44D JUMPI PUSH1 0x0 DUP1 REVERT JUMPDEST POP PUSH1 0x11 SLOAD PUSH2 0x28D SWAP1 PUSH1 0x1 PUSH1 0x1 PUSH1 0xA0 SHL SUB AND DUP2 JUMP JUMPDEST CALLVALUE DUP1 ISZERO PUSH2 0x46D JUMPI PUSH1 0x0 DUP1 REVERT JUMPDEST POP PUSH2 0x1E6 PUSH2 0x47C CALLDATASIZE PUSH1 0x4 PUSH2 0xD9A JUMP JUMPDEST PUSH1 0x5 PUSH1 0x20 MSTORE PUSH1 0x0 SWAP1 DUP2 MSTORE PUSH1 0x40 SWAP1 KECCAK256 SLOAD DUP2 JUMP JUMPDEST CALLVALUE DUP1 ISZERO PUSH2 0x49A JUMPI PUSH1 0x0 DUP1 REVERT JUMPDEST POP PUSH2 0x37B PUSH2 0x4A9 CALLDATASIZE PUSH1 0x4 PUSH2 0xDFF JUMP JUMPDEST PUSH2 0xB34 JUMP JUMPDEST CALLVALUE DUP1 ISZERO PUSH2 0x4BA JUMPI PUSH1 0x0 DUP1 REVERT JUMPDEST POP PUSH2 0x28D PUSH2 0x4C9 CALLDATASIZE PUSH1 0x4 PUSH2 0xDBC JUMP JUMPDEST PUSH2 0xBE6 JUMP JUMPDEST PUSH2 0x37B PUSH2 0x4DC CALLDATASIZE PUSH1 0x4 PUSH2 0xD9A JUMP JUMPDEST PUSH2 0xC10 JUMP JUMPDEST CALLVALUE DUP1 ISZERO PUSH2 0x4ED JUMPI PUSH1 0x0 DUP1 REVERT JUMPDEST POP PUSH2 0x37B PUSH2 0x4FC CALLDATASIZE PUSH1 0x4 PUSH2 0xD9A JUMP JUMPDEST PUSH1 0x10 DUP1 SLOAD PUSH1 0x1 DUP2 ADD DUP3 SSTORE PUSH1 0x0 SWAP2 SWAP1 SWAP2 MSTORE PUSH32 0x1B6847DC741A1B0CD08D278845F9D819D87B734759AFB55FE2DE5CB82A9AE672 ADD DUP1 SLOAD PUSH1 0x1 PUSH1 0x1 PUSH1 0xA0 SHL SUB NOT AND PUSH1 0x1 PUSH1 0x1 PUSH1 0xA0 SHL SUB SWAP3 SWAP1 SWAP3 AND SWAP2 SWAP1 SWAP2 OR SWAP1 SSTORE JUMP JUMPDEST CALLER PUSH1 0x0 DUP2 DUP2 MSTORE PUSH1 0x2 PUSH1 0x20 SWAP1 DUP2 MSTORE PUSH1 0x40 DUP1 DUP4 KECCAK256 SLOAD PUSH1 0x1 DUP4 MSTORE DUP2 DUP5 KECCAK256 SLOAD PUSH1 0x3 DUP5 MSTORE DUP3 DUP6 KECCAK256 SLOAD PUSH1 0xF SLOAD DUP5 MLOAD SWAP8 DUP9 MSTORE SWAP5 DUP8 ADD SWAP5 SWAP1 SWAP5 MSTORE PUSH1 0xFF SWAP1 SWAP2 AND DUP1 ISZERO ISZERO SWAP3 DUP7 ADD SWAP3 SWAP1 SWAP3 MSTORE PUSH1 0x60 DUP6 ADD DUP2 SWAP1 MSTORE PUSH1 0xC0 PUSH1 0x80 DUP7 ADD DUP2 SWAP1 MSTORE PUSH1 0xC SWAP1 DUP7 ADD MSTORE PUSH12 0x7374616B6520737461747573 PUSH1 0xA0 SHL PUSH1 0xE0 DUP7 ADD MSTORE PUSH1 0xA0 DUP6 ADD DUP4 SWAP1 MSTORE SWAP3 SWAP4 DUP5 SWAP4 DUP5 SWAP4 DUP5 SWAP4 SWAP3 PUSH32 0x62CB4D1AD702C883D8AED2D3996E7676E2AC8CF08EB51F2FD1B9D5027BB05B3B SWAP1 PUSH2 0x100 ADD PUSH1 0x40 MLOAD DUP1 SWAP2 SUB SWAP1 LOG1 PUSH1 0xF SLOAD SWAP3 SWAP8 SWAP3 SWAP7 POP SWAP1 SWAP5 POP SWAP3 POP SWAP1 POP JUMP JUMPDEST PUSH1 0x0 DUP1 PUSH1 0xC SLOAD DUP4 PUSH2 0x61A SWAP2 SWAP1 PUSH2 0xE51 JUMP JUMPDEST PUSH1 0xB SLOAD PUSH1 0x40 MLOAD SWAP2 SWAP3 POP PUSH32 0x7571E5819B8998A50E53AF2897E3DE64D344E9481FA62F909FC66ED9CC8AE1B6 SWAP2 PUSH2 0x656 SWAP2 CALLER SWAP2 DUP6 SWAP2 PUSH1 0xFF AND SWAP1 PUSH2 0xEAB JUMP JUMPDEST PUSH1 0x40 MLOAD DUP1 SWAP2 SUB SWAP1 LOG1 SWAP3 SWAP2 POP POP JUMP JUMPDEST CALLER PUSH1 0x0 SWAP1 DUP2 MSTORE PUSH1 0x2 PUSH1 0x20 MSTORE PUSH1 0x40 DUP2 KECCAK256 SLOAD PUSH1 0xFF AND ISZERO ISZERO PUSH1 0x1 EQ PUSH2 0x6BC JUMPI PUSH1 0x40 MLOAD PUSH3 0x461BCD PUSH1 0xE5 SHL DUP2 MSTORE PUSH1 0x20 PUSH1 0x4 DUP3 ADD MSTORE PUSH1 0xC PUSH1 0x24 DUP3 ADD MSTORE PUSH12 0x4E6F74207374616B696E6721 PUSH1 0xA0 SHL PUSH1 0x44 DUP3 ADD MSTORE PUSH1 0x64 ADD JUMPDEST PUSH1 0x40 MLOAD DUP1 SWAP2 SUB SWAP1 REVERT JUMPDEST CALLER PUSH1 0x0 SWAP1 DUP2 MSTORE PUSH1 0x3 PUSH1 0x20 SWAP1 DUP2 MSTORE PUSH1 0x40 DUP1 DUP4 KECCAK256 SLOAD PUSH1 0x1 SWAP1 SWAP3 MSTORE DUP3 KECCAK256 SLOAD SWAP1 SWAP2 PUSH2 0x6E3 DUP4 TIMESTAMP PUSH2 0xED7 JUMP JUMPDEST SWAP1 POP PUSH1 0x0 PUSH3 0x186A0 PUSH1 0xD SLOAD DUP5 DUP5 PUSH2 0x6FA SWAP2 SWAP1 PUSH2 0xEEE JUMP JUMPDEST PUSH2 0x704 SWAP2 SWAP1 PUSH2 0xEEE JUMP JUMPDEST PUSH2 0x70E SWAP2 SWAP1 PUSH2 0xE51 JUMP JUMPDEST PUSH1 0xF DUP2 SWAP1 SSTORE PUSH1 0x40 DUP1 MLOAD DUP5 DUP2 MSTORE PUSH1 0x20 DUP2 ADD DUP8 SWAP1 MSTORE SWAP1 DUP2 ADD DUP3 SWAP1 MSTORE PUSH1 0x60 DUP2 ADD DUP6 SWAP1 MSTORE SWAP1 SWAP2 POP PUSH32 0x7B466A2EAE47EC78458DBE599E7AECD10E67652CBA3F6F66EC4DEB2CAC3854E5 SWAP1 PUSH1 0x80 ADD PUSH1 0x40 MLOAD DUP1 SWAP2 SUB SWAP1 LOG1 SWAP5 SWAP4 POP POP POP POP JUMP JUMPDEST CALLVALUE PUSH7 0x2386F26FC10000 EQ PUSH2 0x7B3 JUMPI PUSH1 0x40 MLOAD PUSH3 0x461BCD PUSH1 0xE5 SHL DUP2 MSTORE PUSH1 0x20 PUSH1 0x4 DUP3 ADD MSTORE PUSH1 0x14 PUSH1 0x24 DUP3 ADD MSTORE PUSH20 0x796F75206D7573742070617920746F20706C6179 PUSH1 0x60 SHL PUSH1 0x44 DUP3 ADD MSTORE PUSH1 0x64 ADD PUSH2 0x6B3 JUMP JUMPDEST PUSH1 0xB DUP1 SLOAD PUSH1 0xFF NOT AND DUP2 SSTORE PUSH1 0x40 DUP1 MLOAD CALLER DUP2 MSTORE PUSH1 0x20 DUP2 ADD DUP3 SWAP1 MSTORE DUP1 DUP3 ADD SWAP3 SWAP1 SWAP3 MSTORE PUSH11 0x47616D65206973206F6E21 PUSH1 0xA8 SHL PUSH1 0x60 DUP4 ADD MSTORE MLOAD PUSH32 0x7C3F1AC7CA02C54F9E5D12B85A1397B5CDA010563F77DD653A2D76D612FFB9A1 SWAP2 DUP2 SWAP1 SUB PUSH1 0x80 ADD SWAP1 LOG1 JUMP JUMPDEST CALLER PUSH1 0x0 SWAP1 DUP2 MSTORE PUSH1 0x2 PUSH1 0x20 MSTORE PUSH1 0x40 SWAP1 KECCAK256 SLOAD PUSH1 0xFF AND ISZERO PUSH2 0x866 JUMPI PUSH1 0x40 MLOAD PUSH3 0x461BCD PUSH1 0xE5 SHL DUP2 MSTORE PUSH1 0x20 PUSH1 0x4 DUP3 ADD MSTORE PUSH1 0x10 PUSH1 0x24 DUP3 ADD MSTORE PUSH16 0x416C7265616479207374616B696E6721 PUSH1 0x80 SHL PUSH1 0x44 DUP3 ADD MSTORE PUSH1 0x64 ADD PUSH2 0x6B3 JUMP JUMPDEST CALLER PUSH1 0x0 SWAP1 DUP2 MSTORE PUSH1 0x1 PUSH1 0x20 MSTORE PUSH1 0x40 SWAP1 KECCAK256 SLOAD ISZERO PUSH2 0x8C3 JUMPI PUSH1 0x40 MLOAD PUSH3 0x461BCD PUSH1 0xE5 SHL DUP2 MSTORE PUSH1 0x20 PUSH1 0x4 DUP3 ADD MSTORE PUSH1 0x18 PUSH1 0x24 DUP3 ADD MSTORE PUSH32 0x5374616B696E6720616D6F756E74206973206E6F742030210000000000000000 PUSH1 0x44 DUP3 ADD MSTORE PUSH1 0x64 ADD PUSH2 0x6B3 JUMP JUMPDEST PUSH1 0x40 MLOAD PUSH4 0x23B872DD PUSH1 0xE0 SHL DUP2 MSTORE CALLER PUSH1 0x4 DUP3 ADD MSTORE ADDRESS PUSH1 0x24 DUP3 ADD MSTORE PUSH1 0x44 DUP2 ADD DUP3 SWAP1 MSTORE PUSH1 0x1 PUSH1 0x1 PUSH1 0xA0 SHL SUB DUP4 AND SWAP1 PUSH4 0x23B872DD SWAP1 PUSH1 0x64 ADD PUSH1 0x20 PUSH1 0x40 MLOAD DUP1 DUP4 SUB DUP2 PUSH1 0x0 DUP8 GAS CALL ISZERO DUP1 ISZERO PUSH2 0x916 JUMPI RETURNDATASIZE PUSH1 0x0 DUP1 RETURNDATACOPY RETURNDATASIZE PUSH1 0x0 REVERT JUMPDEST POP POP POP POP PUSH1 0x40 MLOAD RETURNDATASIZE PUSH1 0x1F NOT PUSH1 0x1F DUP3 ADD AND DUP3 ADD DUP1 PUSH1 0x40 MSTORE POP DUP2 ADD SWAP1 PUSH2 0x93A SWAP2 SWAP1 PUSH2 0xF0D JUMP JUMPDEST POP CALLER PUSH1 0x0 SWAP1 DUP2 MSTORE PUSH1 0x2 PUSH1 0x20 SWAP1 DUP2 MSTORE PUSH1 0x40 DUP1 DUP4 KECCAK256 DUP1 SLOAD PUSH1 0xFF NOT AND PUSH1 0x1 SWAP1 DUP2 OR SWAP1 SWAP2 SSTORE SWAP1 SWAP2 MSTORE DUP2 KECCAK256 DUP1 SLOAD DUP4 SWAP3 SWAP1 PUSH2 0x970 SWAP1 DUP5 SWAP1 PUSH2 0xF2F JUMP JUMPDEST SWAP1 SWAP2 SSTORE POP POP CALLER PUSH1 0x0 DUP2 DUP2 MSTORE PUSH1 0x3 PUSH1 0x20 SWAP1 DUP2 MSTORE PUSH1 0x40 SWAP2 DUP3 SWAP1 KECCAK256 TIMESTAMP SWAP1 SSTORE DUP2 MLOAD SWAP3 DUP4 MSTORE PUSH1 0x1 SWAP1 DUP4 ADD MSTORE PUSH1 0x80 SWAP1 DUP3 ADD DUP2 SWAP1 MSTORE PUSH1 0xC SWAP1 DUP3 ADD MSTORE PUSH12 0x7374616B696E67206E6F7721 PUSH1 0xA0 SHL PUSH1 0xA0 DUP3 ADD MSTORE CALLVALUE PUSH1 0x60 DUP3 ADD MSTORE PUSH32 0xCC88A9B1933C562A754AFCFA5366D93B1AA7DAD853CD6893F95381AB8370A4FC SWAP1 PUSH1 0xC0 ADD JUMPDEST PUSH1 0x40 MLOAD DUP1 SWAP2 SUB SWAP1 LOG1 POP POP JUMP JUMPDEST PUSH1 0xB DUP1 SLOAD PUSH1 0xFF NOT AND PUSH1 0x3 OR SWAP1 SSTORE CALLER PUSH1 0x0 SWAP1 DUP2 MSTORE PUSH1 0x6 PUSH1 0x20 SWAP1 DUP2 MSTORE PUSH1 0x40 DUP1 DUP4 KECCAK256 SLOAD PUSH1 0x2 SWAP1 SWAP3 MSTORE DUP3 KECCAK256 SLOAD SWAP1 SWAP2 SWAP1 PUSH1 0xFF AND ISZERO PUSH2 0xB10 JUMPI PUSH2 0xA2C PUSH2 0x664 JUMP JUMPDEST PUSH1 0x11 SLOAD SWAP1 SWAP2 POP PUSH1 0x1 PUSH1 0x1 PUSH1 0xA0 SHL SUB AND PUSH4 0xA9059CBB CALLER PUSH2 0xA4B DUP5 DUP7 PUSH2 0xEEE JUMP JUMPDEST PUSH1 0x40 MLOAD PUSH1 0x1 PUSH1 0x1 PUSH1 0xE0 SHL SUB NOT PUSH1 0xE0 DUP6 SWAP1 SHL AND DUP2 MSTORE PUSH1 0x1 PUSH1 0x1 PUSH1 0xA0 SHL SUB SWAP1 SWAP3 AND PUSH1 0x4 DUP4 ADD MSTORE PUSH1 0x24 DUP3 ADD MSTORE PUSH1 0x44 ADD PUSH1 0x20 PUSH1 0x40 MLOAD DUP1 DUP4 SUB DUP2 PUSH1 0x0 DUP8 GAS CALL ISZERO DUP1 ISZERO PUSH2 0xA96 JUMPI RETURNDATASIZE PUSH1 0x0 DUP1 RETURNDATACOPY RETURNDATASIZE PUSH1 0x0 REVERT JUMPDEST POP POP POP POP PUSH1 0x40 MLOAD RETURNDATASIZE PUSH1 0x1F NOT PUSH1 0x1F DUP3 ADD AND DUP3 ADD DUP1 PUSH1 0x40 MSTORE POP DUP2 ADD SWAP1 PUSH2 0xABA SWAP2 SWAP1 PUSH2 0xF0D JUMP JUMPDEST POP PUSH1 0x0 SLOAD PUSH1 0xB SLOAD PUSH1 0x40 MLOAD PUSH32 0x42EFD5D6F80B896601E2E950EAA34217EF7534A3BC4A057995031384FC69DBD3 SWAP3 PUSH2 0xB03 SWAP3 PUSH1 0x1 PUSH1 0x1 PUSH1 0xA0 SHL SUB SWAP1 SWAP2 AND SWAP2 DUP7 SWAP2 PUSH1 0xFF AND SWAP1 DUP7 SWAP1 PUSH2 0xF47 JUMP JUMPDEST PUSH1 0x40 MLOAD DUP1 SWAP2 SUB SWAP1 LOG1 POP POP POP JUMP JUMPDEST PUSH1 0x11 SLOAD PUSH1 0x1 PUSH1 0x1 PUSH1 0xA0 SHL SUB AND PUSH4 0xA9059CBB CALLER PUSH2 0xA4B DUP6 PUSH8 0xDE0B6B3A7640000 PUSH2 0xEEE JUMP JUMPDEST PUSH1 0x0 PUSH1 0xB SLOAD PUSH1 0xFF AND PUSH1 0x3 DUP2 GT ISZERO PUSH2 0xB4D JUMPI PUSH2 0xB4D PUSH2 0xE73 JUMP JUMPDEST EQ PUSH2 0xB57 JUMPI PUSH1 0x0 DUP1 REVERT JUMPDEST PUSH1 0x0 PUSH1 0xC SLOAD DUP5 PUSH2 0xB67 SWAP2 SWAP1 PUSH2 0xE51 JUMP JUMPDEST CALLER PUSH1 0x0 SWAP1 DUP2 MSTORE PUSH1 0x6 PUSH1 0x20 MSTORE PUSH1 0x40 DUP2 KECCAK256 DUP1 SLOAD SWAP3 SWAP4 POP DUP4 SWAP3 SWAP1 SWAP2 SWAP1 PUSH2 0xB8B SWAP1 DUP5 SWAP1 PUSH2 0xF2F JUMP JUMPDEST SWAP1 SWAP2 SSTORE POP POP PUSH1 0xB SLOAD PUSH1 0x40 MLOAD PUSH32 0x1699339832AF2C7D422100EDBA3C6497AE9CA1885B11C6BD219600B6B308CCA7 SWAP2 PUSH2 0xBCF SWAP2 CALLER SWAP2 DUP6 SWAP2 PUSH1 0xFF SWAP1 SWAP2 AND SWAP1 DUP10 SWAP1 DUP10 SWAP1 PUSH2 0xF7A JUMP JUMPDEST PUSH1 0x40 MLOAD DUP1 SWAP2 SUB SWAP1 LOG1 PUSH2 0xBE0 DUP3 PUSH2 0x9F1 JUMP JUMPDEST POP POP POP POP JUMP JUMPDEST PUSH1 0x10 DUP2 DUP2 SLOAD DUP2 LT PUSH2 0xBF6 JUMPI PUSH1 0x0 DUP1 REVERT JUMPDEST PUSH1 0x0 SWAP2 DUP3 MSTORE PUSH1 0x20 SWAP1 SWAP2 KECCAK256 ADD SLOAD PUSH1 0x1 PUSH1 0x1 PUSH1 0xA0 SHL SUB AND SWAP1 POP DUP2 JUMP JUMPDEST CALLER PUSH1 0x0 SWAP1 DUP2 MSTORE PUSH1 0x2 PUSH1 0x20 MSTORE PUSH1 0x40 SWAP1 KECCAK256 SLOAD PUSH1 0xFF AND PUSH2 0xC5E JUMPI PUSH1 0x40 MLOAD PUSH3 0x461BCD PUSH1 0xE5 SHL DUP2 MSTORE PUSH1 0x20 PUSH1 0x4 DUP3 ADD MSTORE PUSH1 0xC PUSH1 0x24 DUP3 ADD MSTORE PUSH12 0x4E6F74207374616B696E6721 PUSH1 0xA0 SHL PUSH1 0x44 DUP3 ADD MSTORE PUSH1 0x64 ADD PUSH2 0x6B3 JUMP JUMPDEST CALLER PUSH1 0x0 DUP2 DUP2 MSTORE PUSH1 0x1 PUSH1 0x20 MSTORE PUSH1 0x40 SWAP1 DUP2 SWAP1 KECCAK256 SLOAD SWAP1 MLOAD PUSH4 0xA9059CBB PUSH1 0xE0 SHL DUP2 MSTORE PUSH1 0x4 DUP2 ADD SWAP3 SWAP1 SWAP3 MSTORE PUSH1 0x24 DUP3 ADD DUP2 SWAP1 MSTORE SWAP1 PUSH1 0x1 PUSH1 0x1 PUSH1 0xA0 SHL SUB DUP4 AND SWAP1 PUSH4 0xA9059CBB SWAP1 PUSH1 0x44 ADD PUSH1 0x20 PUSH1 0x40 MLOAD DUP1 DUP4 SUB DUP2 PUSH1 0x0 DUP8 GAS CALL ISZERO DUP1 ISZERO PUSH2 0xCBF JUMPI RETURNDATASIZE PUSH1 0x0 DUP1 RETURNDATACOPY RETURNDATASIZE PUSH1 0x0 REVERT JUMPDEST POP POP POP POP PUSH1 0x40 MLOAD RETURNDATASIZE PUSH1 0x1F NOT PUSH1 0x1F DUP3 ADD AND DUP3 ADD DUP1 PUSH1 0x40 MSTORE POP DUP2 ADD SWAP1 PUSH2 0xCE3 SWAP2 SWAP1 PUSH2 0xF0D JUMP JUMPDEST POP CALLER PUSH1 0x0 DUP2 DUP2 MSTORE PUSH1 0x2 PUSH1 0x20 DUP2 DUP2 MSTORE PUSH1 0x40 DUP1 DUP5 KECCAK256 DUP1 SLOAD PUSH1 0xFF NOT AND DUP2 SSTORE PUSH1 0x3 DUP4 MSTORE DUP2 DUP6 KECCAK256 DUP6 SWAP1 SSTORE PUSH1 0x1 DUP4 MSTORE DUP2 DUP6 KECCAK256 SWAP5 SWAP1 SWAP5 SSTORE SWAP2 DUP2 MSTORE SWAP2 SLOAD DUP2 MLOAD SWAP4 DUP5 MSTORE SWAP2 DUP4 ADD DUP5 SWAP1 MSTORE PUSH1 0xFF SWAP1 SWAP2 AND ISZERO ISZERO SWAP1 DUP3 ADD MSTORE PUSH1 0x80 PUSH1 0x60 DUP3 ADD DUP2 SWAP1 MSTORE PUSH1 0xE SWAP1 DUP3 ADD MSTORE PUSH14 0x456E646564207374616B696E6721 PUSH1 0x90 SHL PUSH1 0xA0 DUP3 ADD MSTORE PUSH32 0xF361D709F1C61432A97B1BF1A87FDD6F4E44C173D8A620CB50A6FC3D6E5D7E5F SWAP1 PUSH1 0xC0 ADD PUSH2 0x9E5 JUMP JUMPDEST DUP1 CALLDATALOAD PUSH1 0x1 PUSH1 0x1 PUSH1 0xA0 SHL SUB DUP2 AND DUP2 EQ PUSH2 0xD95 JUMPI PUSH1 0x0 DUP1 REVERT JUMPDEST SWAP2 SWAP1 POP JUMP JUMPDEST PUSH1 0x0 PUSH1 0x20 DUP3 DUP5 SUB SLT ISZERO PUSH2 0xDAC JUMPI PUSH1 0x0 DUP1 REVERT JUMPDEST PUSH2 0xDB5 DUP3 PUSH2 0xD7E JUMP JUMPDEST SWAP4 SWAP3 POP POP POP JUMP JUMPDEST PUSH1 0x0 PUSH1 0x20 DUP3 DUP5 SUB SLT ISZERO PUSH2 0xDCE JUMPI PUSH1 0x0 DUP1 REVERT JUMPDEST POP CALLDATALOAD SWAP2 SWAP1 POP JUMP JUMPDEST PUSH1 0x0 DUP1 PUSH1 0x40 DUP4 DUP6 SUB SLT ISZERO PUSH2 0xDE8 JUMPI PUSH1 0x0 DUP1 REVERT JUMPDEST PUSH2 0xDF1 DUP4 PUSH2 0xD7E JUMP JUMPDEST SWAP5 PUSH1 0x20 SWAP4 SWAP1 SWAP4 ADD CALLDATALOAD SWAP4 POP POP POP JUMP JUMPDEST PUSH1 0x0 DUP1 PUSH1 0x0 PUSH1 0x60 DUP5 DUP7 SUB SLT ISZERO PUSH2 0xE14 JUMPI PUSH1 0x0 DUP1 REVERT JUMPDEST DUP4 CALLDATALOAD SWAP3 POP PUSH2 0xE24 PUSH1 0x20 DUP6 ADD PUSH2 0xD7E JUMP JUMPDEST SWAP2 POP PUSH2 0xE32 PUSH1 0x40 DUP6 ADD PUSH2 0xD7E JUMP JUMPDEST SWAP1 POP SWAP3 POP SWAP3 POP SWAP3 JUMP JUMPDEST PUSH4 0x4E487B71 PUSH1 0xE0 SHL PUSH1 0x0 MSTORE PUSH1 0x11 PUSH1 0x4 MSTORE PUSH1 0x24 PUSH1 0x0 REVERT JUMPDEST PUSH1 0x0 DUP3 PUSH2 0xE6E JUMPI PUSH4 0x4E487B71 PUSH1 0xE0 SHL PUSH1 0x0 MSTORE PUSH1 0x12 PUSH1 0x4 MSTORE PUSH1 0x24 PUSH1 0x0 REVERT JUMPDEST POP DIV SWAP1 JUMP JUMPDEST PUSH4 0x4E487B71 PUSH1 0xE0 SHL PUSH1 0x0 MSTORE PUSH1 0x21 PUSH1 0x4 MSTORE PUSH1 0x24 PUSH1 0x0 REVERT JUMPDEST PUSH1 0x4 DUP2 LT PUSH2 0xEA7 JUMPI PUSH4 0x4E487B71 PUSH1 0xE0 SHL PUSH1 0x0 MSTORE PUSH1 0x21 PUSH1 0x4 MSTORE PUSH1 0x24 PUSH1 0x0 REVERT JUMPDEST SWAP1 MSTORE JUMP JUMPDEST PUSH1 0x1 PUSH1 0x1 PUSH1 0xA0 SHL SUB DUP5 AND DUP2 MSTORE PUSH1 0x20 DUP2 ADD DUP4 SWAP1 MSTORE PUSH1 0x60 DUP2 ADD PUSH2 0xECF PUSH1 0x40 DUP4 ADD DUP5 PUSH2 0xE89 JUMP JUMPDEST SWAP5 SWAP4 POP POP POP POP JUMP JUMPDEST PUSH1 0x0 DUP3 DUP3 LT ISZERO PUSH2 0xEE9 JUMPI PUSH2 0xEE9 PUSH2 0xE3B JUMP JUMPDEST POP SUB SWAP1 JUMP JUMPDEST PUSH1 0x0 DUP2 PUSH1 0x0 NOT DIV DUP4 GT DUP3 ISZERO ISZERO AND ISZERO PUSH2 0xF08 JUMPI PUSH2 0xF08 PUSH2 0xE3B JUMP JUMPDEST POP MUL SWAP1 JUMP JUMPDEST PUSH1 0x0 PUSH1 0x20 DUP3 DUP5 SUB SLT ISZERO PUSH2 0xF1F JUMPI PUSH1 0x0 DUP1 REVERT JUMPDEST DUP2 MLOAD DUP1 ISZERO ISZERO DUP2 EQ PUSH2 0xDB5 JUMPI PUSH1 0x0 DUP1 REVERT JUMPDEST PUSH1 0x0 DUP3 NOT DUP3 GT ISZERO PUSH2 0xF42 JUMPI PUSH2 0xF42 PUSH2 0xE3B JUMP JUMPDEST POP ADD SWAP1 JUMP JUMPDEST PUSH1 0x1 PUSH1 0x1 PUSH1 0xA0 SHL SUB DUP6 AND DUP2 MSTORE PUSH1 0x20 DUP2 ADD DUP5 SWAP1 MSTORE PUSH1 0x80 DUP2 ADD PUSH2 0xF6B PUSH1 0x40 DUP4 ADD DUP6 PUSH2 0xE89 JUMP JUMPDEST DUP3 PUSH1 0x60 DUP4 ADD MSTORE SWAP6 SWAP5 POP POP POP POP POP JUMP JUMPDEST PUSH1 0x1 PUSH1 0x1 PUSH1 0xA0 SHL SUB DUP7 DUP2 AND DUP3 MSTORE PUSH1 0x20 DUP3 ADD DUP7 SWAP1 MSTORE PUSH1 0xA0 DUP3 ADD SWAP1 PUSH2 0xFA0 PUSH1 0x40 DUP5 ADD DUP8 PUSH2 0xE89 JUMP JUMPDEST DUP5 PUSH1 0x60 DUP5 ADD MSTORE DUP1 DUP5 AND PUSH1 0x80 DUP5 ADD MSTORE POP SWAP7 SWAP6 POP POP POP POP POP POP JUMP INVALID LOG2 PUSH5 0x6970667358 0x22 SLT KECCAK256 RETURN 0xB7 SUB 0xE0 0x2B BALANCE 0x5E 0x23 PUSH2 0x6178 DUP1 0xED DUP6 0x4D SMOD 0xFC 0x22 EXP MSTORE8 0xC2 0xD3 STOP SWAP10 EXTCODEHASH SWAP2 0xEF SWAP4 ORIGIN 0xF8 0xC9 PUSH31 0x64736F6C634300080C00330000000000000000000000000000000000000000 ",
  "sha1": "d8916d0bbc65ae415098437d7411971d40a19aef",
  "source": "pragma solidity ^0.8.1;\nimport \"./GTMtoken.sol\";\nimport \"@openzeppelin/contracts/token/ERC20/IERC20.sol\";\n\ncontract Game{\n    address public player;\n\n    mapping(address => uint256) public Staking_amount;\n    mapping(address => bool) public isStaking;\n    mapping(address => uint256) public staking_time;\n    mapping(address => bool) public is_token_alloed;\n\n    mapping(address => uint256) public score_mapping;\n    mapping(address => uint256) public pay_out_amount;\n    //mapping(uint256 => address) public allowed_tokens;\n\n    enum GAME_STATUS{GAME_START, GAME_ON, GAME_PENDING, GAME_ENDED}\n    address public contract_address;\n    uint256 public amount;\n    uint256 public current_point;\n    uint public playing_fee;\n    GAME_STATUS game_status;\n    uint256 public score_divider;\n    uint256 public rate;\n    uint256 public _timestamp;\n\n    uint256 public reward_rate;\n    \n    event Payout(address, string);\n    event Play(address _user, string);\n    event Ended(address _from, uint256 _amount, GAME_STATUS, uint256 _reward);\n    event New_payout(address _from, uint256 _amount, GAME_STATUS, uint256 _score, address _gmttoken);\n    event Constructor_event(address, uint256, GAME_STATUS);\n    event Curr_payout(address _from, uint256 _amount, GAME_STATUS);\n\n    event Rate(uint256 _rate, uint256 _time,  uint256 _input, uint256 _staking_amount);\n\n    event Staking(address _staker, bool _on, string _message, uint256 _value);\n    event Un_Staking(address _staker, uint256 _amount, bool _on, string _message);\n\n    event Stake_status(address _staker, uint256 _rate, bool _stake_status, uint256 _amount ,string _message, uint256 _time_stamp);\n\n    address [] public allowed_tokens;\n    IERC20 public GTMToken;\n    constructor(address _GTMTokenAddress) payable {\n        game_status = GAME_STATUS.GAME_ON;\n        player = msg.sender;\n        playing_fee = 100000000000000000;\n        score_divider = 100;\n        GTMToken = IERC20(_GTMTokenAddress);\n        contract_address = address(this);\n        rate = 1;\n        emit Constructor_event(player, score_divider, game_status);\n    }\n    struct Player\n    {\n        address player;\n        uint256 score;\n    }\n    Player _player;\n    //En funktion som startar spelet och kÃ¤nner igen poÃ¤ngen\n    //En funktion som betalar ut ens egna token varje gÃ¥ng spelaren nÃ¥r poÃ¤ngen\n    //En funktion som lÃ¥ter spelaren stakea bnb \n\n    /* function is_token_allowed() public{\n        uint256 _tokenindex = 0;\n        for(uint256 _tokenindex = 0; _tokenindex > _tokenindex.length; _tokenindex++){\n            if(allowed_tokens[_tokenindex]){\n                return true;\n            }\n        }\n        return false;\n    } */\n\n    function addallowed_tokens(address _token_address) public{\n        allowed_tokens.push(_token_address);\n    }\n\n    function get_staker_time () public payable returns(uint256){\n        return staking_time[msg.sender];\n    }\n    \n    function get_stake_status () public payable returns(bool, uint256, uint256, uint256){\n        bool curr_stake_status = isStaking[msg.sender];\n        uint256 amount_staked = Staking_amount[msg.sender];\n        uint256 get_time_stamp = staking_time[msg.sender];\n\n        emit Stake_status(msg.sender, reward_rate, curr_stake_status, amount_staked ,\"stake status\", get_time_stamp);\n\n        return (curr_stake_status, reward_rate, amount_staked, get_time_stamp);\n    }\n\n    function stake(address _token_address, uint256 _amount) public payable{\n        require(isStaking[msg.sender] == false, 'Already staking!');\n        //require(is_token_allowed(_token_address), 'Token is not allowed for staking!');\n        require(Staking_amount[msg.sender] == 0, \"Staking amount is not 0!\");\n\n        IERC20(_token_address).transferFrom(msg.sender, address(this) , _amount);\n        isStaking[msg.sender] = true;\n        Staking_amount[msg.sender] += _amount;\n\n        staking_time[msg.sender] = block.timestamp;\n        emit Staking(msg.sender, true, \"staking now!\", msg.value);\n    }\n\n    function unstake(address _token_address) public payable{    \n        require(isStaking[msg.sender], 'Not staking!');\n        uint256 _staking_balance = Staking_amount[msg.sender];\n\n        IERC20(_token_address).transfer(msg.sender , _staking_balance);\n        isStaking[msg.sender] = false;\n        staking_time[msg.sender] = 0;\n        Staking_amount[msg.sender] = 0;\n        emit Un_Staking(msg.sender, _staking_balance, isStaking[msg.sender], \"Ended staking!\");\n    }\n    \n    \n    //1645005098 24 days \n    //1646013963 13 days\n    //1647113963 2 hours\n    //1647005098 1 day\n    //1647116098 minutes\n\n    function staking_rewards() public payable returns(uint256){\n        require(isStaking[msg.sender] == true, 'Not staking!');\n        uint256 _staker_time = staking_time[msg.sender];\n        uint256 _staking_amount = Staking_amount[msg.sender];\n        uint256 time_amount = block.timestamp - _staker_time;\n        uint256 reward_payout = time_amount * _staking_amount * rate/100000;\n        \n        reward_rate = reward_payout;\n\n        emit Rate(time_amount, _staker_time, reward_payout, _staking_amount);\n        return reward_payout;\n    }\n    \n    function play () public payable{\n        require(msg.value == 10000000000000000, \"you must pay to play\");\n        game_status = GAME_STATUS.GAME_START;\n        emit Play(msg.sender, \"Game is on!\"); \n    }\n\n    function get_pay_amount(uint256 new_score) public returns(uint256){\n        uint256 current_payout = new_score / score_divider;\n        emit Curr_payout(msg.sender, current_payout, game_status);\n        return current_payout;\n    } \n\n    function payout_amount(uint256 _score, address _gmttoken, address _token_address) public {\n        require(game_status ==  GAME_STATUS.GAME_START);\n        uint256 final_pay_out = _score / score_divider;\n        pay_out_amount[msg.sender] += final_pay_out;\n        emit New_payout(msg.sender, final_pay_out, game_status, _score, _gmttoken);\n        end_game(_token_address);\n    }\n\n    function end_game(address _token_address) public{\n        game_status = GAME_STATUS.GAME_ENDED;\n        uint256 pay_out = pay_out_amount[msg.sender];\n        uint256 rate_reward = 0;\n        if(isStaking[msg.sender]){\n\n            rate_reward= staking_rewards();\n            GTMToken.transfer(msg.sender, pay_out * rate_reward);\n\n            emit Ended(player, pay_out, game_status, rate_reward);\n            \n        }else{\n\n            GTMToken.transfer(msg.sender, pay_out * 1e18);\n\n            emit Ended(player, pay_out, game_status, rate_reward);\n\n        }\n        \n        \n    }\n\n}",
  "sourcePath": "contracts/Game.sol",
  "type": "contract"
}